:020000040800F2
:10000000E006002091010008770E00083D0E000870
:10001000750E000849050008BD0F0008000000002B
:100020000000000000000000000000007B0E00083F
:100030004B05000800000000790E00087D0E000846
:10004000AB010008AB010008AB010008AB010008E0
:10005000AB010008AB010008AB010008AB010008D0
:10006000AB010008AB010008AB010008AB010008C0
:10007000AB010008AB010008AB010008AB010008B0
:10008000AB010008AB010008AB010008AB010008A0
:10009000AB010008AB010008AB010008AB01000890
:1000A000AB010008AB010008AB010008AB01000880
:1000B000AB010008AB010008AB010008AB01000870
:1000C000AB010008AB010008AB010008AB01000860
:1000D000AB010008990F0008AB010008AB01000854
:1000E000AB010008AB010008AB01000800F002F80A
:1000F00000F03EF80AA090E8000C82448344AAF184
:100100000107DA4501D100F033F8AFF2090EBAE881
:100110000F0013F0010F18BFFB1A43F0010318473B
:10012000480F0000680F0000103A24BF78C878C15B
:10013000FAD8520724BF30C830C144BF04680C60ED
:10014000704700000023002400250026103A28BF35
:1001500078C1FBD8520728BF30C148BF0B60704739
:100160001FB59DE8030000F0CBF81FBD10B510BD12
:1001700000F04AF91146FFF7F3FF00F031FF00F0FD
:1001800068F903B4FFF7F2FF03BC00F099F900002F
:100190000948804709480047FEE7FEE7FEE7FEE71B
:1001A000FEE7FEE7FEE7FEE7FEE7FEE70448054957
:1001B000054A064B70470000DD0E0008ED00000800
:1001C000E0000020E0060020E0020020E002002025
:1001D00070B5064600F078F8056806F10B0020F0CF
:1001E0000704B4429CBF002070BD2B466A68BAB1B8
:1001F0001068A04210D304F1080188423CBF506847
:10020000586007D35168101941601168091B0160DB
:1002100058601460101D70BD13465268002AE7D163
:100220002146284600F058F80028DED170BD4FF076
:1002300000020429C0F0128010F0030C00F01B80B3
:10024000CCF1040CBCF1020F18BF00F8012BA8BFC1
:1002500020F8022BA1EB0C0100F00DB85FEAC17C85
:1002600024BF00F8012B00F8012B48BF00F8012B38
:1002700070474FF0000200B5134694469646203969
:1002800022BFA0E80C50A0E80C50B1F12001BFF44F
:10029000F7AF090728BFA0E80C5048BF0CC05DF8B5
:1002A00004EB890028BF40F8042B08BF704748BF03
:1002B00020F8022B11F0804F18BF00F8012B704777
:1002C0007047704770470000004870478800002062
:1002D000704770477047704738B504460A4600209B
:1002E0006946AFF30080002808BF38BD0246009978
:1002F000204600F067F8012038BD012000F07CB8EE
:10030000F8B5AFF30080054600200C46102000BF72
:100310000646A819A0420DD9324669460020AFF31F
:100320000080070008BF00F067F80098A04218BFDF
:100330000546C419FFF7C8FF05600746F01D20F009
:1003400007004619284600F00AF8B44208BFF8BD75
:10035000A21B31463868BDE8F84000F033B80021F0
:100360000160C0E9011070471020704770B5044665
:10037000051FFFF7A9FF0068002C14BF446870BD7B
:10038000002C18BFAC423CBF20466468F8D301681B
:100390000A18AA4218BF456003D12A6805461144CD
:1003A000016028684119A1421CBF6C6070BD616882
:1003B000696021680844286070BD000000487047EB
:1003C00080000020034640688C46002818BF884201
:1003D0003CBF03464068F8D318681844884207D0E9
:1003E0000CF1030020F00700001D411A521A0146CB
:1003F000081D0A60FFF7BABF10B500F039F8BDE874
:10040000104000F02FB870477546FFF7D7FFAE4693
:1004100005006946534620F00700854618B020B510
:10042000FFF7C4FEBDE820404FF000064FF0000784
:100430004FF000084FF0000B21F00701AC46ACE88C
:10044000C009ACE8C009ACE8C009ACE8C0098D46F9
:10045000704710B50446AFF300802046BDE8104059
:10046000FFF78FBE002801D000F02AB870470000C7
:1004700010B5012805D0002103A000F027F80120C5
:1004800010BD09A1F8E7000053494752544D454DAE
:100490003A204F7574206F662068656170206D6525
:1004A0006D6F7279000000003A2048656170206D20
:1004B000656D6F727920636F727275707465640018
:1004C00001491820ABBEFEE72600020070B50546C4
:1004D0000C460A2000E06D1C00F011F835B12878B8
:1004E0000028F8D102E0641C00F009F814B120786B
:1004F0000028F8D1BDE870400A20AFF3008008B5AD
:1005000069468DF800000320ABBE08BD10B5044657
:100510006421FFF78CFE0B49886800684068002260
:10052000C0B250B10B78632B07D2E0545B1C521C55
:10053000D2B20B70642AF4D310BD0A780020A05404
:10054000087010BD00000020FEE770472DE9F84F4D
:10055000DFF8B8910024A9F1040B23460F2709F115
:10056000040AABF1040EC9E00125A5402A40AA42C5
:100570007DD1674ED1F804C0ACEB0608B44532D04B
:1005800014DCBCF1030F3AD009DCBCF1000F2AD017
:10059000BCF1010F1CD0BCF1020F31D11DE0BCF148
:1005A000110F17D0BCF1120F2AD119E0B8F5881F2E
:1005B00019D006DCB8F5803F15D0B8F5801F1FD1E3
:1005C00011E0B8F5001F0ED0B8F5041F18D10AE0ED
:1005D000CB6815E0CB681B1D12E0CB6808330FE039
:1005E000CB680C330CE08B682BB1012B4FF0080368
:1005F00003D0456104E0042302E0056100E000232C
:10060000FF2A01D8064601E000F104064FEA8405FE
:1006100001D9A5F12005D6F8008007FA05FC28EAE3
:100620000C0803FA05F548EA0508C6F800804D688D
:10063000ED0062D5374DAE6946F00106AE61AD6999
:1006400024F0030605F001050095334D06EB050C7B
:10065000DCF80850A607360F07FA06F825EA080561
:10066000DFF8B880404503D14FF0000817E044E0C0
:10067000DFF8AC80404502D14FF001080FE0DFF811
:10068000A480404502D14FF0020808E0DFF89880CE
:10069000404502D14FF0030801E04FF0040808FA8A
:1006A00006F848EA0508CCF808804D68D9F80060DB
:1006B000ED024D4601D5164300E096432E604D688D
:1006C000DAF80060AD02554601D5164300E09643C6
:1006D0002E604D68DBF80060AD035D4601D5164322
:1006E00000E096432E604D68DEF80060ED0375462D
:1006F00001D5164300E096432E60641C0D682A461F
:10070000E5407FF431AFBDE8F88F000008040140F8
:1007100000001110001002400000014000080140DC
:10072000000C0140001001400014014001488068A5
:1007300070470000280000200248816802781144B8
:100740008160704728000020074810B5016841F01B
:1007500010010160032000F075F80F2000F006F88A
:1007600000F024F8002010BD0020024070B50D4DAF
:1007700004464FF47A712878B1FBF0F00A49096811
:10078000B1FBF0F000F0DCFA48B9102C07D20022DF
:100790002146501E00F036F800206C6070BD01202C
:1007A00070BD000028000020340000200C4808B56F
:1007B000816941F001018161816901F001010091CC
:1007C000C16941F08051C161C06900F08050009062
:1007D0000448416821F0E06141F08061416008BD5A
:1007E0000010024000000140002809DB00F01F0259
:1007F000012191404009800000F1E020C0F8001183
:1008000070470000F0B40E4B1B680C46C3F3022384
:10081000C3F10705042D00D90425191D072901D2AC
:10082000002300E0DB1E012606FA05F1491E2140E7
:1008300099409E40761E16403143F0BC00F0BFBB8D
:100840000CED00E0064900F0070208684FF6FF03D0
:10085000184040EA0220034A104308607047000035
:100860000CED00E00000FA052DE9F0470F46050009
:1008700061D0434E306800F00700B84209D23068BA
:1008800020F0070038433060306800F00700B842BD
:1008900051D128683B4C810712D5400703D56068C9
:1008A00040F4E06060602878000703D5606840F499
:1008B000605060606068A96820F0F00008436060E4
:1008C0002878C00728D06868012810D0216802283D
:1008D00010D0890700292EDA616821F00301014355
:1008E0006160FFF723FF804641F288390DE02168FF
:1008F0008903EFE78901EDE7FFF718FFA0EB080197
:10090000494502D90320BDE8F0876068696800F0B6
:100910000C00B0EB810FEFD1306800F00700B84257
:100920000BD9306820F0070038433060306800F0A1
:100930000700B84201D00120E5E72878400705D537
:100940006068E96820F4E060084360602878000788
:1009500006D56068296920F4605040EAC1006060F3
:1009600000F038F86168084AC1F30311515CC840CF
:100970000649086006480068FFF7F8FE0020C2E755
:1009800000200240001002404E10000834000020F9
:100990002C0000200448054900684968044AC1F356
:1009A0000221515CC8407047340000200010024012
:1009B0005E1000080448054900684968044AC1F30C
:1009C000C221515CC8407047340000200010024032
:1009D0005E1000080E4A51680E4801F00C03042B0B
:1009E00011D0082B0FD10C48C1F38343C903C05C5D
:1009F0000AD55168084AC1F34041921E515C054A2C
:100A00005043B0FBF1F07047044948437047000081
:100A10000010024000127A003E10000800093D005C
:100A20002DE9F84F040070D02078C04DC00749D0A0
:100A30006868C0F38100012807D06868C0F38100AE
:100A4000022809D16868C00306D52868800339D513
:100A500060680028E7D035E06068B0F5803F0BD0D3
:100A600010B1B0F5A02F11D0286820F48030286094
:100A7000286820F4802002E0286840F48030286054
:100A8000606890B1FFF752FE06460AE0286840F41D
:100A900080202860F0E700BFFFF748FE801B642835
:100AA00073D828688003F7D50CE0FFF73FFE0646B1
:100AB00005E000BFFFF73AFE801B6428F0D82868E5
:100AC0008003F7D420789A4E80074FF001094FF049
:100AD000000839D5686810F00C0F07D06868C0F3BB
:100AE0008100022809D16868C00306D428688007FD
:100AF00014D52069012808D110E02069B0B1C6F8EA
:100B00000090FFF713FE074605E00AE1FFF70EFE2F
:100B1000C01B0228C4D828688007F7D528686169F7
:100B200020F0F80040EAC10028600DE0C6F800801F
:100B3000FFF7FCFD074604E0FFF7F8FDC01B0228A5
:100B400023D828688007F7D4207800072CD5794867
:100B5000A169D9B1C0F80090FFF7E8FD074604E0AD
:100B6000FFF7E4FDC01B02280FD8686A8007F7D59D
:100B700071484FF4FA510068B0FBF1F0009000BFEB
:100B80000098411E0091FAD20EE080E0C0F800808B
:100B9000FFF7CCFD074604E0FFF7C8FDC01B0228A5
:100BA00075D8686A8007F7D42078400760D5E8696F
:100BB0000027C00008D4E86940F08050E861E86987
:100BC000012700F0805000905C480168C90513D4EB
:100BD0000168834641F480710160FFF7A7FD8246FA
:100BE00006E000BFFFF7A2FDA0EB0A0064284ED884
:100BF000DBF80000C005F5D5E06801280AD008B18F
:100C0000052813D0286A20F001002862286A20F005
:100C1000040002E0286A40F001002862E06841F226
:100C2000883B98B1FFF782FD82460BE0286A40F0CE
:100C300004002862EEE700BFFFF778FDA0EB0A0191
:100C400059455AD8286A8007F6D50CE0FFF76EFDA3
:100C5000824605E0FFF76AFDA0EB0A0159454CD832
:100C6000286A8007F6D41FB1E86920F08050E86157
:100C7000E06988B36968C1F38101022944D0022880
:100C8000C6F8608004D0FFF751FD044638E034E038
:100C9000FFF74CFD074604E0FFF748FDC01B0228A4
:100CA0002BD828688001F7D4206AB0F5803F05D1A1
:100CB0006868A16820F4003008436860D4E908013E
:100CC0000843696821F4741108436860C6F86090AD
:100CD000FFF72CFD044606E025E000BFFFF726FDE8
:100CE000001B022809D828688001F7D51BE000BF47
:100CF000FFF71CFD001B022802D90320BDE8F88F76
:100D000028688001F4D40EE00128F7D06868226AD0
:100D100000F48031914204D1616A00F4701088427D
:100D200001D00120EAE70020E8E7000000100240BF
:100D30000000424280044242340000200070004023
:100D400010B5401EB0F1807F01D3012010BD4FF0DF
:100D5000E02460610F21601700F031F90020A061EC
:100D600007202061002010BD70B5040004D094F865
:100D70004100002510B106E0012070BD84F840500C
:100D8000204600F023F8242084F841002068C16840
:100D900021F40051C160204600F0A2F820680169EA
:100DA00021F4904101612068416921F02A014161EB
:100DB0002068C16841F40051C1606564202084F856
:100DC000410084F842006563002070BD30B585B0F5
:100DD000002400940194029403940068144988420A
:100DE00024D11448816941F480418161816901F411
:100DF00080410491816941F00401816180690E4D57
:100E000000F0040004904FF4007000900220019064
:100E10000320039069462846FFF798FB2815CDE983
:100E20000004694628460294FFF790FB05B030BDE8
:100E3000003801400010024000080140FEE70000B9
:100E40000B4810B5094901604FF41651416000216B
:100E500081600C22C160C0E904128161C161FFF7A9
:100E600083FF002801D072B6FEE710BD00380140B4
:100E700038000020FEE7FEE770477047FFF75CBCD4
:100E800030B58FB028216846FFF7F3F914210AA87E
:100E9000FFF7EFF90225012004900095102005903E
:100EA00000244FF46010CDE9084007956846FFF72D
:100EB000B7FD08B172B6FEE70F20CDE90A054FF481
:100EC0008060CDE90C4002210AA80E94FFF7CCFC0B
:100ED000002801D072B6FEE70FB030BD70470000A9
:100EE00070B5044600680169E26821F4405111437D
:100EF00001612169A0680843616908432168CA68E3
:100F000041F20C639A430243CA6020684169A269B6
:100F100021F44071114341611E492068884202D189
:100F2000FFF748FD01E0FFF735FD00EBC00101EBE5
:100F30000012606864218000B2FBF0F3B3FBF1F3B0
:100F40006FF018067343B2FBF0F5B2FBF0F605EB59
:100F50008305322303EB0515B5FBF1F5B6FBF1F67E
:100F600005F0F00505EB0615B2FBF0F6B2FBF0F06C
:100F7000B0FBF1F06FF01802504306EB800003EB7A
:100F80000010B0FBF1F0216800F00F0028448860E9
:100F900070BD000000380140074810B500680068C7
:100FA000C043800606D46420FFF712F9BDE8104064
:100FB000FFF7ACBA10BD000038000020FEE70907BB
:100FC000090E002804DB00F1E02080F800147047CF
:100FD00000F00F0000F1E02080F8141D70470000C1
:100FE00008B5FFF7B1FBFFF74BFF1148816941F0EE
:100FF00020018161816901F020010091816941F046
:1010000004018161806900F0040000900948FFF745
:1010100017FF2520FFF7E8FB032211462520FFF7E5
:10102000F1FB05480068C16841F02001C160FEE79E
:101030000010024000380140380000200102020385
:101040000405060708090A0B0C0D0E0F101000000E
:101050000000000000000102030406070809000068
:1010600000000102030400008810000800000020B6
:101070003800000028010008C010000838000020D7
:10108000A806000044010008003D0041542B000068
:10109000000000001D0000202200002041542B52BF
:1010A0004F4C453D0042494E440053454E440000DC
:1010B00001000000100000000000000000127A0093
:04000005080000ED02
:00000001FF
